:10018D003F065B4F666D7D077F6F777C395E7971BA
:01019D0076EB
:04019E007F017E005F
:0B01A200EF1FAC0670011E4C70F6222F
:1000EB00E4FDEDB4080050459000FAF8282873029F
:1000FB00011202011702011C020121020126020159
:10010B002B020130020135E4F5A0802175A001809E
:10011B001C75A002801775A003801275A004800DBA
:10012B0075A005800875A006800375A007740F2DB8
:10013B00F8E6F5807F647E001201A2E4F5800DBD28
:02014B0008A00A
:01014D00228F
:0901B900D288D2A8D2AFD2B22242
:10014E001201B9E509C4540F90018D93F50FE5091D
:10015E00540F93F510E50AC4540F93F511E50A54A4
:10016E000F93F512E50BC4540F93F514E50B540FD2
:0F017E0093F51590019DE493F5161200EB80C4E4
:03000300020006F2
:10000600C0E0C0D075D000C000C002C003C004C0AC
:0500160005C006C00753
:10001B007508007FBC7E021201A230B2030200D829
:10002B007BE87A0320B213D3EB9400EA9400400AE6
:10003B0012019EEB1B70ED1A80EA20B2030200D86E
:10004B007A017BF430B213D3EB9400EA9400400AAC
:10005B0012019EEB1B70ED1A80EAE4FD7517007A16
:10006B00007B3C20B213D3EB9400EA9400400A12BD
:10007B00019EEB1B70ED1A80EA7A017BF430B22003
:10008B00D3EB9400EA940040177F0A7E001201A282
:10009B000508EB1B70011AE508D3941E40DF802D79
:1000AB0074092DF8C000E6C313D000F6E508C3941D
:1000BB0008400874092DF8E64480F675080005170A
:0D00CB00E517C3940840980DED6404708F94
:1000D800D007D006D005D004D003D002D000D0D0AD
:0300E800D0E03233
:030000000201AD4D
:0C01AD00787FE4F6D8FD75811702014E42
:00000001FF
