:040180007F017E007D
:0B018400EF1FAC0670011E4C70F6224D
:09019B00D288D2A8D2AFD2B22260
:1000EB0012019BE4F5807F507EC3120184E50BC4A3
:1000FB00540FFFE50B540FFEEF70F2EE24FE60156C
:10010B0014601714601914601B14601D240570DD36
:10011B0075800180D875800280D375800480CE7580
:10012B00800880C975801080C47580017F507EC3A4
:10013B00120184E4F50FAF807801EF08800123D81A
:10014B00FDF5807F887E13120184050FE50FC394A4
:10015B000740E3E4F50FE50FC394075090AF8078A9
:10016B0001EF08800103D8FDF5807F887E13120113
:05017B0084050F80E186
:03000300020006F2
:10000600C0E0C0D075D000C000C002C003C004C0AC
:0500160005C006C00753
:10001B007508007FBC7E0212018430B2030200D847
:10002B007BE87A0320B213D3EB9400EA9400400AE6
:10003B00120180EB1B70ED1A80EA20B2030200D88C
:10004B007A017BF430B213D3EB9400EA9400400AAC
:10005B00120180EB1B70ED1A80EAE4FD7510007A3B
:10006B00007B3C20B213D3EB9400EA9400400A12BD
:10007B000180EB1B70ED1A80EA7A017BF430B22021
:10008B00D3EB9400EA940040177F0A7E00120184A0
:10009B000508EB1B70011AE508D3941E40DF802D79
:1000AB0074092DF8C000E6C313D000F6E508C3941D
:1000BB0008400874092DF8E64480F6750800051011
:0D00CB00E510C3940840980DED6404708F9B
:1000D800D007D006D005D004D003D002D000D0D0AD
:0300E800D0E03233
:0300000002018F6B
:0C018F00787FE4F6D8FD7581100200EBCB
:00000001FF
